:10006600EFD3940540037F012212049CFED3940330
:1000760040037F0222EF7041EE700B9000011204E4
:10008600B5F45293529412049CB4010B90000112E1
:1000960004B54293F4529412049CFEB4020A9000F2
:1000A600011204B542934294EEB4030D900001127E
:1000B60004B5FEF45293EE4294EF640170431204C9
:1000C6009CFE700B9000011204B5F452915292EE10
:1000D600B4010B9000011204B54291F4529212043D
:1000E6009CB4020A9000011204B542914292120495
:1000F6009CB4030D9000011204B5FEF45291EE4239
:1001060092EF6402704312049CFE700B9000011281
:1001160004B5F452955296EEB4010B900001120408
:10012600B54295F4529612049CB4020A900001124C
:1001360004B54295429612049CB4030D9000011238
:1001460004B5FEF45295EE4296EF64037043120432
:100156009CFE700B9000011204B5F452B152B2EE3F
:10016600B4010B9000011204B542B1F452B212046C
:100176009CB4020A9000011204B542B142B21204C4
:100186009CB4030D9000011204B5FEF452B1EE4288
:10019600B2EF6404704312049CFE700B90000112CF
:1001A60004B5F452B352B4EEB4010B90000112043C
:1001B600B542B3F452B412049CB4020A9000011280
:1001C60004B542B342B412049CB4030D900001126C
:1001D60004B5FEF452B3EE42B4EF64057043120464
:1001E6009CFF700B9000011204B5F452C952CAEF7D
:1001F600B4010B9000011204B542C9F452CA1204AC
:100206009CB4020A9000011204B542C942CA120403
:100216009CB4030D9000011204B5FFF452C9EF42DD
:04022600CA7F002269
:1006D100EFD3940540037F0122EDD394FF40037FC4
:1006E1000222EF700BED300005F45280800242804F
:1006F100BF010BED300005F4529080024290BF0221
:100701000BED300005F452A0800242A0BF030BEDB7
:10071100300005F452B0800242B0BF030BED30004F
:1007210005F452C0800242C0BF030BED300005F456
:0907310052C8800242C87F002278
:10073A007580FFE5A0541F44A0F5A0E4F58053A0FE
:02074A001F226C
:10001E007513FFE4F512FB7A007912FF1200667B6E
:10002E00007A0079127F021200667B007A00791244
:05003E007F03020066D3
:1005CC0075100075110112073A12001E75A08012E9
:1005DC000657BF05170511E51170020510D39403DA
:1005EC00E51094004006751000751101E51070DCE3
:1005FC00E51124FE6019146034240270CF7580FF5D
:10060C00C2007D01E4FF1206D17FC87E0080107508
:10061C0080FFC2007D01E4FF1206D17F907E0112A3
:10062C000003D2007D01E4FF1206D1809F7580FF8C
:10063C00C2007D01E4FF1206D17F207E031200036D
:0B064C00D2007D01E4FF1206D1808186
:10000300EF1FAC0670011E4C600B007D027CC7DC49
:05001300FEDDFC80EBA6
:0100180022C5
:04005C00000000227E
:05005600007F0BDFFE3E
:01005B002282
:03001B0002006080
:03006000B2A63213
:0300630002075041
:03075000B2903232
:10022A00AD07EDD3940240037F0122ED707BC28CAF
:10023A009000021204B5B40104D2A98002C2A990A6
:10024A0000011204B5B40104D2B98002C2B9120481
:10025A009CFED3940340037F0222E58954FC4EF5A9
:10026A00899000031204B5FFB40103538E7FEF7027
:10027A0003438E80EFB4020543890480035389FB4C
:10028A009000041204B5B40105438F018003538F13
:10029A00FE9000051204E2F58CF58A90000712041C
:1002AA00B5B40102D28C7F0022ED6401600302031F
:1002BA003EC28E9000021204B5B40104D2AB800291
:1002CA00C2AB9000011204B5B40104D2BB8002C2D1
:1002DA00BB12049CFEC3940340037F0222E58954A7
:1002EA00CF4EF5899000031204B5FFB40103538E73
:1002FA00BFEF7003438E40EFB40205438940800389
:10030A005389BF9000041204B5B40105438F0280DB
:10031A0003538FFD9000051204E2E5F0F58D90007D
:10032A00051204E2F58B9000071204B5B40102D25B
:10033A008E7F0022ED64027074538EEF90000212D9
:10034A0004B5B4010543AF04800353AFFB90000327
:10035A001204B5FED3940240037F0222EEB40103D5
:10036A00538EFB9000031204B57003438E04900071
:10037A00031204B5B40205438E088003538EF79026
:10038A0000041204B5B40105438F048003538FFBA4
:10039A009000051204E2FDACF0ECF5D68DD7900082
:1003AA00071204B5B40103438E107F00227F022294
:04074C00FEFDFBF7BC
:1000430001080F010900010A00040BF0F0F0F001B0
:020053000F009C
:1006570075B0FF120056E5B0540FFF6508FE604104
:10066700E4F50AEE24FE601624FE601F24FC6025D4
:100677002407702B30B0028049751207804730B1CC
:1006870002803F751206750901803A30B202803246
:10069700751205803030B3028028751204802680D9
:1006A7002120B11EE509B40111050AE50AB4500578
:1006B700750902800AE4F5128008E509B40203759A
:0906C7001214E4F5128F08AF12C1
:0106D0002207
:1003BA007F80E5B054F0F514740B250FF8E6651448
:1003CA00FE70030204847D01EE7801088002C333C3
:1003DA00D8FCFE6006EFC313FF80EBE5145F6003F1
:1003EA00020484AE0F7401A806088002C333D8FC45
:1003FA004F12051A047D11047812047314046E183E
:10040A00046921046422045F24045A28045541041F
:10041A005042044B44044648044181043C82043758
:10042A00840432880000048275150480507515050D
:10043A00804B75150680467515078041751508802D
:10044A003C751509803775150A803275150B802D94
:10045A0075150C802875150D802375150E801E756F
:10046A00150F80197515108014751511800F7515E3
:10047A0012800A75151380058000E4F515AF0F0583
:10048A000F740B2FF8A614E50F90074C93F5B0AF35
:01049A00154C
:01049B00223E
:03000000020540B6
:0C054000787FE4F6D8FD75812002058765
:10049C00BB010689828A83E0225002E722BBFE025E
:0904AC00E32289828A83E4932291
:1004B500BB010CE58229F582E5833AF583E02250FC
:1004C50006E92582F8E622BBFE06E92582F8E22246
:0D04D500E58229F582E5833AF583E4932260
:1004E200BB0110E58229F582E5833AF583E0F5F058
:1004F200A3E0225009E92582F886F008E622BBFE35
:100502000AE92582F8E2F5F008E222E5832AF5837A
:08051200E993F5F0A3E993223F
:10051A00D083D082F8E4937012740193700DA3A370
:10052A0093F8740193F5828883E473740293686084
:06053A00EFA3A3A380DF84
:10054C000205CCE493A3F8E493A34003F68001F2F4
:10055C0008DFF48029E493A3F85407240CC8C333B0
:10056C00C4540F4420C8834004F456800146F6DF7F
:10057C00E4800B0102040810204080900043E47ECC
:10058C00019360BCA3FF543F30E509541FFEE49374
:10059C00A360010ECF54C025E060A840B8E493A33B
:1005AC00FAE493A3F8E493A3C8C582C8CAC583CA66
:1005BC00F0A3C8C582C8CAC583CADFE9DEE780BE1E
:0100550000AA
:00000001FF
