:03000000020131C9
:0C013100787FE4F6D8FD7581200201788B
:080003000102040810204080F6
:05037900D2020203188E
:05037E00C20202031899
:0303830002033B37
:10028D008F0EE50E70059000038020E50EC39408D7
:10029D00400690000AE48013E50E90000393FDAF35
:1002AD0080120383150EE50E90000393FDAF8012AF
:0302BD0003832296
:10031800EFD3940540037F0122EDD394FF40037F80
:100328000222EF700BED300205F452808002428009
:030338007F002221
:1002C000EFD3940540037F0322EDD394FF40037FD7
:1002D0000222EF7014ED60047F0180027F00E58050
:0C02E0005F60037F01227F00227F00226C
:10033B00EFD3940540037F0122EDD394FF40037F5D
:0B034B000222EF7003ED62807F0022B1
:10036800C100C101020C0000020A000802080000D6
:03000B000201BD32
:1001BD00C0E0C0F0C083C082C0D075D000C000C008
:0D01CD0001C002C003C004C005C006C00789
:1001DA000509E509AE087002050814FF7C017D9047
:1001EA0012000EED4C7002D2000509E509AE087046
:1001FA0002050814FF7C037D2012000EED4C7002EC
:10020A00D201AE08AF09E4FCFD7B607AEAF9F81284
:10021A000249AC00AD01AE02AF03EC4D4E4F700483
:04022A00F508F509D5
:10022E00D007D006D005D004D003D002D001D00024
:0B023E00D0D0D082D083D0F0D0E032CE
:1003560075A0801202ECBF05FA7D02E4FF12037954
:0203660080F124
:1002EC00790F75B0FFE5B0540FFE6924FE60102441
:1002FC00FE601024FC60102407700E7F07800A7FBC
:0B030C000680067F0580027F04A90622
:0103170022C3
:10013D00020356E493A3F8E493A34003F68001F27F
:10014D0008DFF48029E493A3F85407240CC8C333C3
:10015D00C4540F4420C8834004F456800146F6DF92
:10016D00E4800B0102040810204080900368E47EB7
:10017D00019360BCA3FF543F30E509541FFEE49387
:10018D00A360010ECF54C025E060A840B8E493A34E
:10019D00FAE493A3F8E493A3C8C582C8CAC583CA79
:1001AD00F0A3C8C582C8CAC583CADFE9DEE780BE31
:010378000084
:10000E00BC000BBE0029EF8DF084FFADF022E4CCD6
:10001E00F875F008EF2FFFEE33FEEC33FCEE9DEC9F
:10002E00984005FCEE9DFE0FD5F0E9E4CEFD22EDE5
:10003E00F8F5F0EE8420D21CFEADF075F008EF2F2F
:10004E00FFED33FD4007985006D5F0F222C398FD20
:05005E000FD5F0EA22BD
:10024900C2D5E830E70FB2D5E4C39BFBE49AFAE4E0
:1002590099F9E498F8EC30E717B2D512027F120049
:100269009FE4C39BFBE49AFAE499F9E498F88003C4
:1002790012009F30D50DE4C39FFFE49EFEE49DFD6F
:04028900E49CFC22D3
:1000630075F008758200EF2FFFEE33FECD33CDCC54
:1000730033CCC58233C5829BED9AEC99E5829840D7
:100083000CF582EE9BFEED9AFDEC99FC0FD5F0D6B4
:10009300E4CEFBE4CDFAE4CCF9A88222B800C1B9DE
:1000A3000059BA002DEC8BF084CFCECDFCE5F0CB1C
:1000B300F97818EF2FFFEE33FEED33FDEC33FCEB55
:1000C30033FB10D703994004EB99FB0FD8E5E4F910
:1000D300FA227818EF2FFFEE33FEED33FDEC33FCFD
:1000E300C933C910D7059BE99A4007EC9BFCE99AF1
:1000F300F90FD8E0E4C9FAE4CCFB2275F010EF2F36
:10010300FFEE33FEED33FDCC33CCC833C810D70735
:100113009BEC9AE899400AED9BFDEC9AFCE899F870
:0E0123000FD5F0DAE4CDFBE4CCFAE4C8F92203
:00000001FF
