:10006600EFD3940540037F012212049CFED3940330
:1000760040037F0222EF7041EE700B9000011204E4
:10008600B5F45293529412049CB4010B90000112E1
:1000960004B54293F4529412049CFEB4020A9000F2
:1000A600011204B542934294EEB4030D900001127E
:1000B60004B5FEF45293EE4294EF640170431204C9
:1000C6009CFE700B9000011204B5F452915292EE10
:1000D600B4010B9000011204B54291F4529212043D
:1000E6009CB4020A9000011204B542914292120495
:1000F6009CB4030D9000011204B5FEF45291EE4239
:1001060092EF6402704312049CFE700B9000011281
:1001160004B5F452955296EEB4010B900001120408
:10012600B54295F4529612049CB4020A900001124C
:1001360004B54295429612049CB4030D9000011238
:1001460004B5FEF45295EE4296EF64037043120432
:100156009CFE700B9000011204B5F452B152B2EE3F
:10016600B4010B9000011204B542B1F452B212046C
:100176009CB4020A9000011204B542B142B21204C4
:100186009CB4030D9000011204B5FEF452B1EE4288
:10019600B2EF6404704312049CFE700B90000112CF
:1001A60004B5F452B352B4EEB4010B90000112043C
:1001B600B542B3F452B412049CB4020A9000011280
:1001C60004B542B342B412049CB4030D900001126C
:1001D60004B5FEF452B3EE42B4EF64057043120464
:1001E6009CFF700B9000011204B5F452C952CAEF7D
:1001F600B4010B9000011204B542C9F452CA1204AC
:100206009CB4020A9000011204B542C942CA120403
:100216009CB4030D9000011204B5FFF452C9EF42DD
:04022600CA7F002269
:10064600EFD3940540037F0122EDD394FF40037F4F
:100656000222EF700BED300005F4528080024280DA
:10066600BF010BED300005F4529080024290BF02AC
:100676000BED300005F452A0800242A0BF030BED43
:10068600300005F452B0800242B0BF030BED3000DB
:1006960005F452C0800242C0BF030BED300005F4E2
:0906A60052C8800242C87F002204
:07073000021C0000011E0085
:10001E00750DFFE4F50CFB7A00790CFF1200667B80
:10002E00007A00790C7F021200667B007A00790C50
:05003E007F03020066D3
:10004300750C02E4F50D750E01F50F751001F51130
:0F005300751205751301FB7A00790CFF02022A62
:03000B0002070EDB
:10070E00C0E0C0D0051DE51D7002051CB4D00EE57D
:10071E001CB40709751C00751D00751E01D0D0D0C4
:02072E00E032B7
:1006AF00E4F508F509F50AF50B12001E120043D206
:1006BF00AF75A0801205CCBF05067508007509013E
:1006CF00E50870EDE50914602B0470E57580FFE512
:1006DF001EB401DDE4F51ED2007D01FF12064605B2
:1006EF000BE50B7002050A6419450A70C4F508750D
:0F06FF00090180BDC2007D01E4FF12064680B2F2
:10074A00EF1FAC0670011E4C600B007D027CC7DCFB
:05075A00FEDDFC80EB58
:01075F002277
:04000E0000000022CC
:05000300007F0BDFFE91
:0100080022D5
:03001B00020016CA
:03001600B2A6325D
:0300630002076031
:03076000B2903222
:10022A00AD07EDD3940240037F0122ED707BC28CAF
:10023A009000021204B5B40104D2A98002C2A990A6
:10024A0000011204B5B40104D2B98002C2B9120481
:10025A009CFED3940340037F0222E58954FC4EF5A9
:10026A00899000031204B5FFB40103538E7FEF7027
:10027A0003438E80EFB4020543890480035389FB4C
:10028A009000041204B5B40105438F018003538F13
:10029A00FE9000051204E2F58CF58A90000712041C
:1002AA00B5B40102D28C7F0022ED6401600302031F
:1002BA003EC28E9000021204B5B40104D2AB800291
:1002CA00C2AB9000011204B5B40104D2BB8002C2D1
:1002DA00BB12049CFEC3940340037F0222E58954A7
:1002EA00CF4EF5899000031204B5FFB40103538E73
:1002FA00BFEF7003438E40EFB40205438940800389
:10030A005389BF9000041204B5B40105438F0280DB
:10031A0003538FFD9000051204E2E5F0F58D90007D
:10032A00051204E2F58B9000071204B5B40102D25B
:10033A008E7F0022ED64027074538EEF90000212D9
:10034A0004B5B4010543AF04800353AFFB90000327
:10035A001204B5FED3940240037F0222EEB40103D5
:10036A00538EFB9000031204B57003438E04900071
:10037A00031204B5B40205438E088003538EF79026
:10038A0000041204B5B40105438F048003538FFBA4
:10039A009000051204E2FDACF0ECF5D68DD7900082
:1003AA00071204B5B40103438E107F00227F022294
:04001200FEFDFBF7FD
:1007370001140F0115000116000417F0F0F0F00185
:020747001B0095
:1005CC0075B0FF120003E5B0540FFF6514FE6041D7
:1005DC00E4F516EE24FE601624FE601F24FC602554
:1005EC002407702B30B0028049750C07804730B15E
:1005FC0002803F750C06751501803A30B2028032CC
:10060C00750C05803030B3028028750C0480268070
:10061C002120B11EE515B401110516E516B45005DF
:10062C00751502800AE4F50C8008E515B402037513
:09063C000C14E4F50C8F14AF0C52
:010645002292
:1003BA007F80E5B054F0F5217417251BF8E6652116
:1003CA00FE70030204847D01EE7801088002C333C3
:1003DA00D8FCFE6006EFC313FF80EBE5215F6003E4
:1003EA00020484AE1B7401A806088002C333D8FC39
:1003FA004F12051A047D11047812047314046E183E
:10040A00046921046422045F24045A28045541041F
:10041A005042044B44044648044181043C82043758
:10042A0084043288000004827522048050752205F3
:10043A00804B752206804675220780417522088006
:10044A003C752209803775220A803275220B802D6D
:10045A0075220C802875220D802375220E801E7548
:10046A00220F80197522108014752211800F7522AF
:10047A0012800A75221380058000E4F522AF1B055D
:10048A001B74172FF8A621E51B90001293F5B0AF45
:01049A00223F
:01049B00223E
:03000000020540B6
:0C054000787FE4F6D8FD75812202058763
:10049C00BB010689828A83E0225002E722BBFE025E
:0904AC00E32289828A83E4932291
:1004B500BB010CE58229F582E5833AF583E02250FC
:1004C50006E92582F8E622BBFE06E92582F8E22246
:0D04D500E58229F582E5833AF583E4932260
:1004E200BB0110E58229F582E5833AF583E0F5F058
:1004F200A3E0225009E92582F886F008E622BBFE35
:100502000AE92582F8E2F5F008E222E5832AF5837A
:08051200E993F5F0A3E993223F
:10051A00D083D082F8E4937012740193700DA3A370
:10052A0093F8740193F5828883E473740293686084
:06053A00EFA3A3A380DF84
:10054C000206AFE493A3F8E493A34003F68001F210
:10055C0008DFF48029E493A3F85407240CC8C333B0
:10056C00C4540F4420C8834004F456800146F6DF7F
:10057C00E4800B0102040810204080900730E47ED8
:10058C00019360BCA3FF543F30E509541FFEE49374
:10059C00A360010ECF54C025E060A840B8E493A33B
:1005AC00FAE493A3F8E493A3C8C582C8CAC583CA66
:1005BC00F0A3C8C582C8CAC583CADFE9DEE780BE1E
:0107490000AF
:00000001FF
