:10006600EFD3940540037F0122120446FED3940386
:1000760040037F0222EF7041EE700B9000011204E4
:100086005FF452935294120446B4010B900001128D
:10009600045F4293F45294120446FEB4020A90009E
:1000A6000112045F42934294EEB4030D90000112D4
:1000B600045FFEF45293EE4294EF6401704312041F
:1000C60046FE700B90000112045FF452915292EEBC
:1000D600B4010B90000112045F4291F45292120493
:1000E60046B4020A90000112045F42914292120441
:1000F60046B4030D90000112045FFEF45291EE42E5
:1001060092EF64027043120446FE700B90000112D7
:10011600045FF452955296EEB4010B90000112045E
:100126005F4295F45296120446B4020A90000112F8
:10013600045F42954296120446B4030D90000112E4
:10014600045FFEF45295EE4296EF64037043120488
:1001560046FE700B90000112045FF452B152B2EEEB
:10016600B4010B90000112045F42B1F452B21204C2
:1001760046B4020A90000112045F42B142B2120470
:1001860046B4030D90000112045FFEF452B1EE4234
:10019600B2EF64047043120446FE700B9000011225
:1001A600045FF452B352B4EEB4010B900001120492
:1001B6005F42B3F452B4120446B4020A900001122C
:1001C600045F42B342B4120446B4030D9000011218
:1001D600045FFEF452B3EE42B4EF640570431204BA
:1001E60046FF700B90000112045FF452C952CAEF29
:1001F600B4010B90000112045F42C9F452CA120402
:1002060046B4020A90000112045F42C942CA1204AF
:1002160046B4030D90000112045FFFF452C9EF4289
:04022600CA7F002269
:1004C400EFD3940540037F0122EDD394FF40037FD3
:1004D4000222EF700BED300005F45280800242805E
:1004E400BF010BED300005F4529080024290BF0230
:1004F4000BED300005F452A0800242A0BF030BEDC7
:10050400300005F452B0800242B0BF030BED30005E
:1005140005F452C0800242C0BF030BED300005F465
:0905240052C8800242C87F002287
:10066100080901020408102040800108020212005A
:010671000088
:10061A007515FFE4F514FB7A0079147F0112006660
:0B062A007B007A0079147F020200665A
:1005FB00751402E4F515751601F517751801F51943
:0F060B00751A05751B01FB7A007914FF02022A8C
:10059F007590FF7FF47E0112064BE4F51174092567
:1005AF0011F8E6FDD2007F011204C47FF47E011220
:0E05BF00064B0511C3E5116480948840E022CC
:1005CD007590FF7FFA7E0012064B75110774092591
:1005DD0011F8E6FDD2007F011204C47FFA7E0012ED
:0E05ED00064B1511C3E5116480948050E02286
:10001E007590FF7F647E0012064BE4F5117409257E
:10002E0011F8E6FDD2007F011204C4C374079511C6
:10003E002409F8E6FDD2007F011204C47F647E001D
:0F004E0012064B0511C3E5116480948440CF2244
:10052D007590FF7F907E0112064B7511037409259E
:10053D0011F8E6FDD2007F011204C4C374079511B2
:10054D002409F8E6FDD2007F011204C47F907E01DC
:0F055D0012064B1511C3E5116480948050CF2214
:03000B0002056C7F
:10056C00C0E0C0D00513E51370020512D394A0E5CA
:10057C0012940F5004C2A58015D3E5139470E512A4
:10058C0094175004D2A58006751200751300D0D0B4
:03059C00D0E0327A
:1006350012061A1205FBD2AF12059F1205CD120044
:060645001E12052D80F2DB
:10064B00EF1FAC0670011E4C600B007D027CC7DCFB
:05065B00FEDDFC80EB58
:010660002277
:03001B00020003DD
:03000300B2A63270
:0300630002000692
:03000600B2903283
:10022A00AD07EDD3940240037F0122ED707BC28CAF
:10023A0090000212045FB40104D2A98002C2A990FC
:10024A00000112045FB40104D2B98002C2B91204D7
:10025A0046FED3940340037F0222E58954FC4EF5FF
:10026A008990000312045FFFB40103538E7FEF707D
:10027A0003438E80EFB4020543890480035389FB4C
:10028A0090000412045FB40105438F018003538F69
:10029A00FE90000512048CF58CF58A900007120472
:1002AA005FB40102D28C7F0022ED64016003020375
:1002BA003EC28E90000212045FB40104D2AB8002E7
:1002CA00C2AB90000112045FB40104D2BB8002C227
:1002DA00BB120446FEC3940340037F0222E58954FD
:1002EA00CF4EF58990000312045FFFB40103538EC9
:1002FA00BFEF7003438E40EFB40205438940800389
:10030A005389BF90000412045FB40105438F028031
:10031A0003538FFD90000512048CE5F0F58D9000D3
:10032A000512048CF58B90000712045FB40102D207
:10033A008E7F0022ED64027074538EEF90000212D9
:10034A00045FB4010543AF04800353AFFB9000037D
:10035A0012045FFED3940240037F0222EEB401032B
:10036A00538EFB90000312045F7003438E049000C7
:10037A000312045FB40205438E088003538EF7907C
:10038A00000412045FB40105438F048003538FFBFA
:10039A0090000512048CFDACF0ECF5D68DD79000D8
:1003AA000712045FB40103438E107F00227F0222EA
:030000000203BA3E
:0C03BA00787FE4F6D8FD75812002040174
:10044600BB010689828A83E0225002E722BBFE02B4
:09045600E32289828A83E49322E7
:10045F00BB010CE58229F582E5833AF583E0225052
:10046F0006E92582F8E622BBFE06E92582F8E2229C
:0D047F00E58229F582E5833AF583E49322B6
:10048C00BB0110E58229F582E5833AF583E0F5F0AE
:10049C00A3E0225009E92582F886F008E622BBFE8B
:1004AC000AE92582F8E2F5F008E222E5832AF583D1
:0804BC00E993F5F0A3E9932296
:1003C600020635E493A3F8E493A34003F68001F212
:1003D60008DFF48029E493A3F85407240CC8C33338
:1003E600C4540F4420C8834004F456800146F6DF07
:1003F600E4800B0102040810204080900661E47E30
:10040600019360BCA3FF543F30E509541FFEE493FB
:10041600A360010ECF54C025E060A840B8E493A3C2
:10042600FAE493A3F8E493A3C8C582C8CAC583CAED
:10043600F0A3C8C582C8CAC583CADFE9DEE780BEA5
:010672000087
:00000001FF
