:10006600EFD3940540037F0122120547FED3940384
:1000760040037F0222EF7041EE700B9000011205E3
:1000860060F452935294120547B4010B900001128A
:1000960005604293F45294120547FEB4020A90009A
:1000A6000112056042934294EEB4030D90000112D2
:1000B6000560FEF45293EE4294EF6401704312051C
:1000C60047FE700B900001120560F452915292EEB9
:1000D600B4010B9000011205604291F45292120590
:1000E60047B4020A9000011205604291429212053D
:1000F60047B4030D900001120560FEF45291EE42E2
:1001060092EF64027043120547FE700B90000112D5
:100116000560F452955296EEB4010B90000112055B
:10012600604295F45296120547B4020A90000112F5
:10013600056042954296120547B4030D90000112E0
:100146000560FEF45295EE4296EF64037043120585
:1001560047FE700B900001120560F452B152B2EEE8
:10016600B4010B90000112056042B1F452B21205BF
:1001760047B4020A90000112056042B142B212056C
:1001860047B4030D900001120560FEF452B1EE4231
:10019600B2EF64047043120547FE700B9000011223
:1001A6000560F452B352B4EEB4010B90000112058F
:1001B6006042B3F452B4120547B4020A9000011229
:1001C600056042B342B4120547B4030D9000011214
:1001D6000560FEF452B3EE42B4EF640570431205B7
:1001E60047FF700B900001120560F452C952CAEF26
:1001F600B4010B90000112056042C9F452CA1205FF
:1002060047B4020A90000112056042C942CA1205AB
:1002160047B4030D900001120560FFF452C9EF4286
:04022600CA7F002269
:1006F100EFD3940540037F0122EDD394FF40037FA4
:100701000222EF700BED300005F45280800242802E
:10071100BF010BED300005F4529080024290BF0200
:100721000BED300005F452A0800242A0BF030BED97
:10073100300005F452B0800242B0BF030BED30002F
:1007410005F452C0800242C0BF030BED300005F436
:0907510052C8800242C87F002258
:10079200080C0102040810204080010902020A002C
:0707A2000001140001080032
:1007BC007527FFE4F526FB7A007926FF1200667B8D
:1007CC00007A0079267F021200667B007A00792677
:0507DC007F030200662E
:0F087800E5A0541F44A0F5A0E4F58053A01F2273
:10084300752602E4F527752801F529752A01F52B8C
:0F085300752C05752D01FB7A007926FF02022A0C
:10075A008F26E5267006D200AD0C8027E526C394C5
:10076A00084006C200AD138019740C2526F8E6FD70
:10077A00D200E4FF1206F11526740C2526F8E6FDD0
:08078A00C200E4FF1206F12297
:10001E008F26E526B40706D200AD0C8026E526D342
:10002E0094005006C200AD0C8019740C2526F8E61B
:10003E00FDD200E4FF1206F10526740C2526F8E623
:09004E00FDC200E4FF1206F122DC
:100803008F26740C2FF8E6FDD200E4FF1206F1C325
:1008130074079526240CF8E6FDD200E4FF0206F1E6
:100823008F26740C2FF8E6FDD2007F011206F1C368
:1008330074079526240CF8E6FDD2007F010206F129
:03000B000207E108
:1007E100C0E0C0D0050BE50B7002050AB4100EE5A0
:1007F1000AB42709750A00750B00751401D0D0D011
:02080100E032E3
:10049C00E4F521752207F523752403F52512087858
:1004AC001207BC120843D2AF75A080120677BF05A5
:1004BC000C0525E525D394044003E4F525E5252416
:1004CC00FE602514603D146055240370DEE514B401
:1004DC0001D9E4F514AF2112075A0521E521D39473
:1004EC000840C8E4F52180C3E514B401BEE4F5145A
:1004FC00AF2212001E1522E522C3940050AD7522C6
:10050C000780A8E514640170A2F514AF2312080348
:10051C000523E523D394044092E4F523808DE51460
:10052C0064017087AF241208231524E524C39400BA
:0B053C0040030204B77524030204B75B
:10086200EF1FAC0670011E4C600B007D027CC7DCE2
:05087200FEDDFC80EB3F
:01087700225E
:04000E0000000022CC
:05000300007F0BDFFE91
:0100080022D5
:03001B00020016CA
:03001600B2A6325D
:0300630002005741
:03005700B2903232
:10022A00AD07EDD3940240037F0122ED707BC28CAF
:10023A00900002120560B40104D2A98002C2A990FA
:10024A000001120560B40104D2B98002C2B91205D4
:10025A0047FED3940340037F0222E58954FC4EF5FE
:10026A0089900003120560FFB40103538E7FEF707B
:10027A0003438E80EFB4020543890480035389FB4C
:10028A00900004120560B40105438F018003538F67
:10029A00FE90000512058DF58CF58A90000712056F
:1002AA0060B40102D28C7F0022ED64016003020374
:1002BA003EC28E900002120560B40104D2AB8002E5
:1002CA00C2AB900001120560B40104D2BB8002C225
:1002DA00BB120547FEC3940340037F0222E58954FB
:1002EA00CF4EF589900003120560FFB40103538EC7
:1002FA00BFEF7003438E40EFB40205438940800389
:10030A005389BF900004120560B40105438F02802F
:10031A0003538FFD90000512058DE5F0F58D9000D1
:10032A000512058DF58B900007120560B40102D203
:10033A008E7F0022ED64027074538EEF90000212D9
:10034A000560B4010543AF04800353AFFB9000037B
:10035A00120560FED3940240037F0222EEB4010329
:10036A00538EFB9000031205607003438E049000C5
:10037A0003120560B40205438E088003538EF7907A
:10038A000004120560B40105438F048003538FFBF8
:10039A0090000512058DFDACF0ECF5D68DD79000D6
:1003AA0007120560B40103438E107F00227F0222E8
:04001200FEFDFBF7FD
:1007A90001150F0116000117000418F0F0F0F0010F
:0207B9001C0022
:1006770075B0FF120003E5B0540FFF6515FE60412A
:10068700E4F517EE24FE601624FE601F24FC6025A7
:100697002407702B30B0028049752607804730B198
:1006A70002803F752606751601803A30B202803205
:1006B700752605803030B302802875260480268091
:1006C7002120B11EE516B401110517E517B4500531
:1006D700751602800AE4F5268008E516B40203754C
:0906E7002614E4F5268F15AF2658
:0106F00022E7
:1003BA007F80E5B054F0F51D7418251CF8E6651D1C
:1003CA00FE70030204847D01EE7801088002C333C3
:1003DA00D8FCFE6006EFC313FF80EBE51D5F6003E8
:1003EA00020484AE1C7401A806088002C333D8FC38
:1003FA004F1205C5047D11047812047314046E1893
:10040A00046921046422045F24045A28045541041F
:10041A005042044B44044648044181043C82043758
:10042A008404328800000482751E048050751E05FB
:10043A00804B751E068046751E078041751E088012
:10044A003C751E098037751E0A8032751E0B802D79
:10045A00751E0C8028751E0D8023751E0E801E7554
:10046A001E0F8019751E108014751E11800F751EBF
:10047A0012800A751E1380058000E4F51EAF1C0564
:10048A001C74182FF8A61DE51C90001293F5B0AF46
:01049A001E43
:01049B00223E
:030000000205EB0B
:0C05EB00787FE4F6D8FD75812D02063201
:10054700BB010689828A83E0225002E722BBFE02B2
:09055700E32289828A83E49322E5
:10056000BB010CE58229F582E5833AF583E0225050
:1005700006E92582F8E622BBFE06E92582F8E2229A
:0D058000E58229F582E5833AF583E49322B4
:10058D00BB0110E58229F582E5833AF583E0F5F0AC
:10059D00A3E0225009E92582F886F008E622BBFE89
:1005AD000AE92582F8E2F5F008E222E5832AF583CF
:0805BD00E993F5F0A3E9932294
:1005C500D083D082F8E4937012740193700DA3A3C5
:1005D50093F8740193F5828883E4737402936860D9
:0605E500EFA3A3A380DFD9
:1005F70002049CE493A3F8E493A34003F68001F27A
:1006070008DFF48029E493A3F85407240CC8C33304
:10061700C4540F4420C8834004F456800146F6DFD3
:10062700E4800B0102040810204080900792E47ECA
:10063700019360BCA3FF543F30E509541FFEE493C8
:10064700A360010ECF54C025E060A840B8E493A38F
:10065700FAE493A3F8E493A3C8C582C8CAC583CABA
:10066700F0A3C8C582C8CAC583CADFE9DEE780BE72
:0107BB00003D
:00000001FF
