:10006600EFD3940540037F0122120542FED3940389
:1000760040037F0222EF7041EE700B9000011205E3
:100086005BF452935294120542B4010B9000011294
:10009600055B4293F45294120542FEB4020A9000A4
:1000A6000112055B42934294EEB4030D90000112D7
:1000B600055BFEF45293EE4294EF64017043120521
:1000C60042FE700B90000112055BF452915292EEC3
:1000D600B4010B90000112055B4291F45292120595
:1000E60042B4020A90000112055B42914292120547
:1000F60042B4030D90000112055BFEF45291EE42EC
:1001060092EF64027043120542FE700B90000112DA
:10011600055BF452955296EEB4010B900001120560
:100126005B4295F45296120542B4020A90000112FF
:10013600055B42954296120542B4030D90000112EA
:10014600055BFEF45295EE4296EF6403704312058A
:1001560042FE700B90000112055BF452B152B2EEF2
:10016600B4010B90000112055B42B1F452B21205C4
:1001760042B4020A90000112055B42B142B2120576
:1001860042B4030D90000112055BFEF452B1EE423B
:10019600B2EF64047043120542FE700B9000011228
:1001A600055BF452B352B4EEB4010B900001120594
:1001B6005B42B3F452B4120542B4020A9000011233
:1001C600055B42B342B4120542B4030D900001121E
:1001D600055BFEF452B3EE42B4EF640570431205BC
:1001E60042FF700B90000112055BF452C952CAEF30
:1001F600B4010B90000112055B42C9F452CA120504
:1002060042B4020A90000112055B42C942CA1205B5
:1002160042B4030D90000112055BFFF452C9EF4290
:04022600CA7F002269
:1006EC00EFD3940540037F0122EDD394FF40037FA9
:1006FC000222EF700BED300005F452808002428034
:10070C00BF010BED300005F4529080024290BF0205
:10071C000BED300005F452A0800242A0BF030BED9C
:10072C00300005F452B0800242B0BF030BED300034
:10073C0005F452C0800242C0BF030BED300005F43B
:09074C0052C8800242C87F00225D
:10079D000817010204081020408002150000011FF7
:0107AD00004B
:10001E00750EFFE4F50DFB7A00790DFF1200667B7D
:10002E00007A00790D7F021200667B007A00790D4E
:05003E007F03020066D3
:10004300750D02E4F50E750F01F510751101F5122A
:0F005300751305751401FB7A00790DFF02022A5F
:1007F9007580FF74172FF8E6FDD200E4FF0206ECBE
:100809007580FF74172FF8E6FDD200E4FF0206ECAD
:100755008F0D7580FF7417250DF8E6FDD200E4FFB7
:100765001206ECC37407950D2417F8E6FDD200E4D4
:04077500FF0206EC8D
:100779008F0D7580FF7417250DF8E6FDD200E4FF93
:100789001206ECC37407950D2417F8E6FDD200E4B0
:04079900FF0206EC69
:03000B000207C128
:1007C100C0E0C0D00516E51670020515B4100EE59F
:1007D10015B42709751500751600751F01D0D0D005
:0207E100E03204
:10049C00E4F508750907F50A750B03750C011200D4
:1004AC001E120043D2AF75A080120672BF050C0558
:1004BC000CE50CD394044003750C01E50C24FE6090
:1004CC002514603D146055240370DEE51FB401D97A
:1004DC00E4F51FAF081207F90508E508D3940840A6
:1004EC00C8E4F50880C3E51FB401BEE4F51FAF09ED
:1004FC00120809E509D39400500375090715098002
:10050C00A8E51F640170A2F51FAF0A120755050A72
:10051C00E50AD394044092E4F50A808DE51F64014A
:10052C007087AF0B120779E50BD394005003750B52
:06053C0003150B0204B5DB
:1007E300EF1FAC0670011E4C600B007D027CC7DC62
:0507F300FEDDFC80EBBF
:0107F80022DE
:04000E0000000022CC
:05000300007F0BDFFE91
:0100080022D5
:03001B00020016CA
:03001600B2A6325D
:0300630002081977
:03081900B2903268
:10022A00AD07EDD3940240037F0122ED707BC28CAF
:10023A0090000212055BB40104D2A98002C2A990FF
:10024A00000112055BB40104D2B98002C2B91205D9
:10025A0042FED3940340037F0222E58954FC4EF503
:10026A008990000312055BFFB40103538E7FEF7080
:10027A0003438E80EFB4020543890480035389FB4C
:10028A0090000412055BB40105438F018003538F6C
:10029A00FE900005120588F58CF58A900007120574
:1002AA005BB40102D28C7F0022ED64016003020379
:1002BA003EC28E90000212055BB40104D2AB8002EA
:1002CA00C2AB90000112055BB40104D2BB8002C22A
:1002DA00BB120542FEC3940340037F0222E5895400
:1002EA00CF4EF58990000312055BFFB40103538ECC
:1002FA00BFEF7003438E40EFB40205438940800389
:10030A005389BF90000412055BB40105438F028034
:10031A0003538FFD900005120588E5F0F58D9000D6
:10032A0005120588F58B90000712055BB40102D20D
:10033A008E7F0022ED64027074538EEF90000212D9
:10034A00055BB4010543AF04800353AFFB90000380
:10035A0012055BFED3940240037F0222EEB401032E
:10036A00538EFB90000312055B7003438E049000CA
:10037A000312055BB40205438E088003538EF7907F
:10038A00000412055BB40105438F048003538FFBFD
:10039A00900005120588FDACF0ECF5D68DD79000DB
:1003AA000712055BB40103438E107F00227F0222ED
:04001200FEFDFBF7FD
:1007AE0001210F0122000123000424F0F0F0F001DA
:0207BE00280011
:1006720075B0FF120003E5B0540FFF6521FE604123
:10068200E4F523EE24FE601624FE601F24FC6025A0
:100692002407702B30B0028049750D07804730B1B6
:1006A20002803F750D06752201803A30B202803217
:1006B200750D05803030B3028028750D04802680C8
:1006C2002120B11EE522B401110523E523B4500512
:1006D200752202800AE4F50D8008E522B402037552
:0906E2000D14E4F50D8F21AF0D9C
:0106EB0022EC
:1003BA007F80E5B054F0F52974242528F8E66529EC
:1003CA00FE70030204847D01EE7801088002C333C3
:1003DA00D8FCFE6006EFC313FF80EBE5295F6003DC
:1003EA00020484AE287401A806088002C333D8FC2C
:1003FA004F1205C0047D11047812047314046E1898
:10040A00046921046422045F24045A28045541041F
:10041A005042044B44044648044181043C82043758
:10042A008404328800000482752A048050752A05E3
:10043A00804B752A068046752A078041752A0880EE
:10044A003C752A098037752A0A8032752A0B802D55
:10045A00752A0C8028752A0D8023752A0E801E7530
:10046A002A0F8019752A108014752A11800F752A8F
:10047A0012800A752A1380058000E4F52AAF280540
:10048A002874242FF8A629E52890001293F5B0AF16
:01049A002A37
:01049B00223E
:030000000205E610
:0C05E600787FE4F6D8FD75812A02062D0E
:10054200BB010689828A83E0225002E722BBFE02B7
:09055200E32289828A83E49322EA
:10055B00BB010CE58229F582E5833AF583E0225055
:10056B0006E92582F8E622BBFE06E92582F8E2229F
:0D057B00E58229F582E5833AF583E49322B9
:10058800BB0110E58229F582E5833AF583E0F5F0B1
:10059800A3E0225009E92582F886F008E622BBFE8E
:1005A8000AE92582F8E2F5F008E222E5832AF583D4
:0805B800E993F5F0A3E9932299
:1005C000D083D082F8E4937012740193700DA3A3CA
:1005D00093F8740193F5828883E4737402936860DE
:0605E000EFA3A3A380DFDE
:1005F20002049CE493A3F8E493A34003F68001F27F
:1006020008DFF48029E493A3F85407240CC8C33309
:10061200C4540F4420C8834004F456800146F6DFD8
:10062200E4800B010204081020408090079DE47EC4
:10063200019360BCA3FF543F30E509541FFEE493CD
:10064200A360010ECF54C025E060A840B8E493A394
:10065200FAE493A3F8E493A3C8C582C8CAC583CABF
:10066200F0A3C8C582C8CAC583CADFE9DEE780BE77
:0107C0000038
:00000001FF
